{
    "_format": "hh-sol-artifact-1",
    "contractName": "NFTMarketplace",
    "sourceName": "contracts/NFTMarketplace.sol",
    "abi": [
        {
            "anonymous": false,
            "inputs": [
                {
                    "indexed": false,
                    "internalType": "address",
                    "name": "nftAddress",
                    "type": "address"
                },
                {
                    "indexed": false,
                    "internalType": "uint256",
                    "name": "tokenId",
                    "type": "uint256"
                },
                {
                    "indexed": false,
                    "internalType": "address",
                    "name": "seller",
                    "type": "address"
                }
            ],
            "name": "ListingCanceled",
            "type": "event"
        },
        {
            "anonymous": false,
            "inputs": [
                {
                    "indexed": false,
                    "internalType": "address",
                    "name": "nftAddress",
                    "type": "address"
                },
                {
                    "indexed": false,
                    "internalType": "uint256",
                    "name": "tokenId",
                    "type": "uint256"
                },
                {
                    "indexed": false,
                    "internalType": "uint256",
                    "name": "price",
                    "type": "uint256"
                },
                {
                    "indexed": false,
                    "internalType": "address",
                    "name": "seller",
                    "type": "address"
                }
            ],
            "name": "ListingCreated",
            "type": "event"
        },
        {
            "anonymous": false,
            "inputs": [
                {
                    "indexed": false,
                    "internalType": "address",
                    "name": "nftAddress",
                    "type": "address"
                },
                {
                    "indexed": false,
                    "internalType": "uint256",
                    "name": "tokenId",
                    "type": "uint256"
                },
                {
                    "indexed": false,
                    "internalType": "address",
                    "name": "seller",
                    "type": "address"
                },
                {
                    "indexed": false,
                    "internalType": "address",
                    "name": "buyer",
                    "type": "address"
                }
            ],
            "name": "ListingPurchased",
            "type": "event"
        },
        {
            "anonymous": false,
            "inputs": [
                {
                    "indexed": false,
                    "internalType": "address",
                    "name": "nftAddress",
                    "type": "address"
                },
                {
                    "indexed": false,
                    "internalType": "uint256",
                    "name": "tokenId",
                    "type": "uint256"
                },
                {
                    "indexed": false,
                    "internalType": "uint256",
                    "name": "newPrice",
                    "type": "uint256"
                },
                {
                    "indexed": false,
                    "internalType": "address",
                    "name": "seller",
                    "type": "address"
                }
            ],
            "name": "ListingUpdated",
            "type": "event"
        },
        {
            "inputs": [
                {
                    "internalType": "address",
                    "name": "nftAddress",
                    "type": "address"
                },
                {
                    "internalType": "uint256",
                    "name": "tokenId",
                    "type": "uint256"
                }
            ],
            "name": "cancelListing",
            "outputs": [],
            "stateMutability": "nonpayable",
            "type": "function"
        },
        {
            "inputs": [
                {
                    "internalType": "address",
                    "name": "nftAddress",
                    "type": "address"
                },
                {
                    "internalType": "uint256",
                    "name": "tokenId",
                    "type": "uint256"
                },
                {
                    "internalType": "uint256",
                    "name": "price",
                    "type": "uint256"
                }
            ],
            "name": "createListing",
            "outputs": [],
            "stateMutability": "nonpayable",
            "type": "function"
        },
        {
            "inputs": [
                {
                    "internalType": "address",
                    "name": "",
                    "type": "address"
                },
                {
                    "internalType": "uint256",
                    "name": "",
                    "type": "uint256"
                }
            ],
            "name": "listings",
            "outputs": [
                {
                    "internalType": "uint256",
                    "name": "price",
                    "type": "uint256"
                },
                {
                    "internalType": "address",
                    "name": "seller",
                    "type": "address"
                }
            ],
            "stateMutability": "view",
            "type": "function"
        },
        {
            "inputs": [
                {
                    "internalType": "address",
                    "name": "nftAddress",
                    "type": "address"
                },
                {
                    "internalType": "uint256",
                    "name": "tokenId",
                    "type": "uint256"
                }
            ],
            "name": "purchaseListing",
            "outputs": [],
            "stateMutability": "payable",
            "type": "function"
        },
        {
            "inputs": [
                {
                    "internalType": "address",
                    "name": "nftAddress",
                    "type": "address"
                },
                {
                    "internalType": "uint256",
                    "name": "tokenId",
                    "type": "uint256"
                },
                {
                    "internalType": "uint256",
                    "name": "newPrice",
                    "type": "uint256"
                }
            ],
            "name": "updateListing",
            "outputs": [],
            "stateMutability": "nonpayable",
            "type": "function"
        }
    ],
    "bytecode": "0x608060405234801561001057600080fd5b50611589806100206000396000f3fe6080604052600436106100495760003560e01c806207df301461004e57806324780c561461008c578063a7fc91b9146100b5578063b2ddee06146100d1578063f772adf1146100fa575b600080fd5b34801561005a57600080fd5b5061007560048036038101906100709190610f44565b610123565b60405161008392919061135f565b60405180910390f35b34801561009857600080fd5b506100b360048036038101906100ae9190610f80565b610174565b005b6100cf60048036038101906100ca9190610f44565b61067d565b005b3480156100dd57600080fd5b506100f860048036038101906100f39190610f44565b610a05565b005b34801561010657600080fd5b50610121600480360381019061011c9190610f80565b610c58565b005b6000602052816000526040600020602052806000526040600020600091509150508060000154908060010160009054906101000a900473ffffffffffffffffffffffffffffffffffffffff16905082565b828260008060008473ffffffffffffffffffffffffffffffffffffffff1673ffffffffffffffffffffffffffffffffffffffff1681526020019081526020016000206000838152602001908152602001600020600001541461020b576040517f08c379a000000000000000000000000000000000000000000000000000000000815260040161020290611264565b60405180910390fd5b84843373ffffffffffffffffffffffffffffffffffffffff168273ffffffffffffffffffffffffffffffffffffffff16636352211e836040518263ffffffff1660e01b815260040161025d9190611344565b60206040518083038186803b15801561027557600080fd5b505afa158015610289573d6000803e3d6000fd5b505050506040513d601f19601f820116820180604052508101906102ad9190610f1b565b73ffffffffffffffffffffffffffffffffffffffff1614610303576040517f08c379a00000000000000000000000000000000000000000000000000000000081526004016102fa906112e4565b60405180910390fd5b60008511610346576040517f08c379a000000000000000000000000000000000000000000000000000000000815260040161033d906112a4565b60405180910390fd5b60008060008973ffffffffffffffffffffffffffffffffffffffff1673ffffffffffffffffffffffffffffffffffffffff168152602001908152602001600020600088815260200190815260200160002060000154146103db576040517f08c379a00000000000000000000000000000000000000000000000000000000081526004016103d290611264565b60405180910390fd5b60008790508073ffffffffffffffffffffffffffffffffffffffff1663e985e9c533306040518363ffffffff1660e01b815260040161041b929190611143565b60206040518083038186803b15801561043357600080fd5b505afa158015610447573d6000803e3d6000fd5b505050506040513d601f19601f8201168201806040525081019061046b9190610fcf565b8061052957503073ffffffffffffffffffffffffffffffffffffffff168173ffffffffffffffffffffffffffffffffffffffff1663081812fc896040518263ffffffff1660e01b81526004016104c19190611344565b60206040518083038186803b1580156104d957600080fd5b505afa1580156104ed573d6000803e3d6000fd5b505050506040513d601f19601f820116820180604052508101906105119190610f1b565b73ffffffffffffffffffffffffffffffffffffffff16145b610568576040517f08c379a000000000000000000000000000000000000000000000000000000000815260040161055f90611324565b60405180910390fd5b60405180604001604052808781526020013373ffffffffffffffffffffffffffffffffffffffff168152506000808a73ffffffffffffffffffffffffffffffffffffffff1673ffffffffffffffffffffffffffffffffffffffff16815260200190815260200160002060008981526020019081526020016000206000820151816000015560208201518160010160006101000a81548173ffffffffffffffffffffffffffffffffffffffff021916908373ffffffffffffffffffffffffffffffffffffffff1602179055509050507fdc801191e0c92935648f61c8e3d0cd8eac1d060269ddb920487d02ab0be69e7d8888883360405161066b949392919061121f565b60405180910390a15050505050505050565b818160008060008473ffffffffffffffffffffffffffffffffffffffff1673ffffffffffffffffffffffffffffffffffffffff16815260200190815260200160002060008381526020019081526020016000206000015411610714576040517f08c379a000000000000000000000000000000000000000000000000000000000815260040161070b90611284565b60405180910390fd5b60008060008673ffffffffffffffffffffffffffffffffffffffff1673ffffffffffffffffffffffffffffffffffffffff1681526020019081526020016000206000858152602001908152602001600020604051806040016040529081600082015481526020016001820160009054906101000a900473ffffffffffffffffffffffffffffffffffffffff1673ffffffffffffffffffffffffffffffffffffffff1673ffffffffffffffffffffffffffffffffffffffff1681525050905080600001513414610818576040517f08c379a000000000000000000000000000000000000000000000000000000000815260040161080f90611304565b60405180910390fd5b6000808673ffffffffffffffffffffffffffffffffffffffff1673ffffffffffffffffffffffffffffffffffffffff16815260200190815260200160002060008581526020019081526020016000206000808201600090556001820160006101000a81549073ffffffffffffffffffffffffffffffffffffffff021916905550508473ffffffffffffffffffffffffffffffffffffffff166342842e0e826020015133876040518463ffffffff1660e01b81526004016108da9392919061116c565b600060405180830381600087803b1580156108f457600080fd5b505af1158015610908573d6000803e3d6000fd5b505050506000816020015173ffffffffffffffffffffffffffffffffffffffff16346040516109369061112e565b60006040518083038185875af1925050503d8060008114610973576040519150601f19603f3d011682016040523d82523d6000602084013e610978565b606091505b50509050806109bc576040517f08c379a00000000000000000000000000000000000000000000000000000000081526004016109b3906112c4565b60405180910390fd5b7fab7369fca6913c40e2bf7144b586a1a0e894bd32f5f9e74128cd89fb54f7bf9486868460200151336040516109f594939291906111da565b60405180910390a1505050505050565b818160008060008473ffffffffffffffffffffffffffffffffffffffff1673ffffffffffffffffffffffffffffffffffffffff16815260200190815260200160002060008381526020019081526020016000206000015411610a9c576040517f08c379a0000000000000000000000000000000000000000000000000000000008152600401610a9390611284565b60405180910390fd5b83833373ffffffffffffffffffffffffffffffffffffffff168273ffffffffffffffffffffffffffffffffffffffff16636352211e836040518263ffffffff1660e01b8152600401610aee9190611344565b60206040518083038186803b158015610b0657600080fd5b505afa158015610b1a573d6000803e3d6000fd5b505050506040513d601f19601f82011682018060405250810190610b3e9190610f1b565b73ffffffffffffffffffffffffffffffffffffffff1614610b94576040517f08c379a0000000000000000000000000000000000000000000000000000000008152600401610b8b906112e4565b60405180910390fd5b6000808773ffffffffffffffffffffffffffffffffffffffff1673ffffffffffffffffffffffffffffffffffffffff16815260200190815260200160002060008681526020019081526020016000206000808201600090556001820160006101000a81549073ffffffffffffffffffffffffffffffffffffffff021916905550507fcf45896873f759e6a8c2348e49ff9892b89458850ab6c70339e1c430227ce91d868633604051610c48939291906111a3565b60405180910390a1505050505050565b828260008060008473ffffffffffffffffffffffffffffffffffffffff1673ffffffffffffffffffffffffffffffffffffffff16815260200190815260200160002060008381526020019081526020016000206000015411610cef576040517f08c379a0000000000000000000000000000000000000000000000000000000008152600401610ce690611284565b60405180910390fd5b84843373ffffffffffffffffffffffffffffffffffffffff168273ffffffffffffffffffffffffffffffffffffffff16636352211e836040518263ffffffff1660e01b8152600401610d419190611344565b60206040518083038186803b158015610d5957600080fd5b505afa158015610d6d573d6000803e3d6000fd5b505050506040513d601f19601f82011682018060405250810190610d919190610f1b565b73ffffffffffffffffffffffffffffffffffffffff1614610de7576040517f08c379a0000000000000000000000000000000000000000000000000000000008152600401610dde906112e4565b60405180910390fd5b60008511610e2a576040517f08c379a0000000000000000000000000000000000000000000000000000000008152600401610e21906112a4565b60405180910390fd5b846000808973ffffffffffffffffffffffffffffffffffffffff1673ffffffffffffffffffffffffffffffffffffffff1681526020019081526020016000206000888152602001908152602001600020600001819055507f3199bfdff711ec1ab8ab8449dc3b8d3fa30a59861a734a9d26f7b1a38162df7587878733604051610eb6949392919061121f565b60405180910390a150505050505050565b600081359050610ed68161150e565b92915050565b600081519050610eeb8161150e565b92915050565b600081519050610f0081611525565b92915050565b600081359050610f158161153c565b92915050565b600060208284031215610f2d57600080fd5b6000610f3b84828501610edc565b91505092915050565b60008060408385031215610f5757600080fd5b6000610f6585828601610ec7565b9250506020610f7685828601610f06565b9150509250929050565b600080600060608486031215610f9557600080fd5b6000610fa386828701610ec7565b9350506020610fb486828701610f06565b9250506040610fc586828701610f06565b9150509250925092565b600060208284031215610fe157600080fd5b6000610fef84828501610ef1565b91505092915050565b611001816113a4565b82525050565b6000611014601483611393565b915061101f826113ec565b602082019050919050565b6000611037601083611393565b915061104282611415565b602082019050919050565b600061105a601783611393565b91506110658261143e565b602082019050919050565b600061107d601683611393565b915061108882611467565b602082019050919050565b60006110a0601383611393565b91506110ab82611490565b602082019050919050565b60006110c3601c83611393565b91506110ce826114b9565b602082019050919050565b60006110e6600083611388565b91506110f1826114e2565b600082019050919050565b6000611109601983611393565b9150611114826114e5565b602082019050919050565b611128816113e2565b82525050565b6000611139826110d9565b9150819050919050565b60006040820190506111586000830185610ff8565b6111656020830184610ff8565b9392505050565b60006060820190506111816000830186610ff8565b61118e6020830185610ff8565b61119b604083018461111f565b949350505050565b60006060820190506111b86000830186610ff8565b6111c5602083018561111f565b6111d26040830184610ff8565b949350505050565b60006080820190506111ef6000830187610ff8565b6111fc602083018661111f565b6112096040830185610ff8565b6112166060830184610ff8565b95945050505050565b60006080820190506112346000830187610ff8565b611241602083018661111f565b61124e604083018561111f565b61125b6060830184610ff8565b95945050505050565b6000602082019050818103600083015261127d81611007565b9050919050565b6000602082019050818103600083015261129d8161102a565b9050919050565b600060208201905081810360008301526112bd8161104d565b9050919050565b600060208201905081810360008301526112dd81611070565b9050919050565b600060208201905081810360008301526112fd81611093565b9050919050565b6000602082019050818103600083015261131d816110b6565b9050919050565b6000602082019050818103600083015261133d816110fc565b9050919050565b6000602082019050611359600083018461111f565b92915050565b6000604082019050611374600083018561111f565b6113816020830184610ff8565b9392505050565b600081905092915050565b600082825260208201905092915050565b60006113af826113c2565b9050919050565b60008115159050919050565b600073ffffffffffffffffffffffffffffffffffffffff82169050919050565b6000819050919050565b7f4d524b543a20416c7265616479206c6973746564000000000000000000000000600082015250565b7f4d524b543a204e6f74206c697374656400000000000000000000000000000000600082015250565b7f4d524b543a205072696365206d757374206265203e2030000000000000000000600082015250565b7f4661696c656420746f207472616e736665722065746800000000000000000000600082015250565b7f4d524b543a204e6f7420746865206f776e657200000000000000000000000000600082015250565b7f4d524b543a20496e636f72726563742045544820737570706c69656400000000600082015250565b50565b7f4d524b543a204e6f20617070726f76616c20666f72204e465400000000000000600082015250565b611517816113a4565b811461152257600080fd5b50565b61152e816113b6565b811461153957600080fd5b50565b611545816113e2565b811461155057600080fd5b5056fea264697066735822122072ed41828019b62afde4324cd4d3af576f0eb544c21d18b9cf1046a099284cf464736f6c63430008040033",
    "linkReferences": {},
    "deployedLinkReferences": {}
}